:100000000C9462000C948A000C948A000C948A0070
:100010000C948A000C948A000C948A000C948A0038
:100020000C948A000C948A000C948A000C948A0028
:100030000C948A000C948A000C948A000C948A0018
:100040000C9401030C948A000C948A000C948A008E
:100050000C948A000C948A000C948A000C948A00F8
:100060000C948A000C948A000000000024002700F1
:100070002A0000000000250028002B0000000000DE
:1000800023002600290004040404040404040202DA
:100090000202020203030303030301020408102007
:1000A0004080010204081020010204081020000012
:1000B0000008000201000003040700000000000027
:1000C0000000080411241FBECFEFD8E0DEBFCDBF73
:1000D00011E0A0E0B1E0EEE5F8E002C005900D927D
:1000E000A036B107D9F721E0A0E6B1E001C01D922A
:1000F000A138B207E1F710E0C2E6D0E004C02197D2
:10010000FE010E942704C136D107C9F70E944B03A4
:100110000C942D040C940000AF92BF92CF92DF920A
:10012000EF92FF920F931F93CF93DF936C017B01AC
:100130008B01040F151FEB015E01AE18BF08C0173D
:10014000D10759F06991D601ED91FC910190F081B0
:10015000E02DC6010995892B79F7C501DF91CF9173
:100160001F910F91FF90EF90DF90CF90BF90AF90D5
:100170000895833081F028F4813099F08230A9F01D
:1001800008958730A9F08830C9F08430B1F48091A7
:1001900080008F7D03C0809180008F7780938000E6
:1001A000089584B58F7784BD089584B58F7DFBCF86
:1001B0008091B0008F778093B00008958091B00057
:1001C0008F7DF9CF1F93CF93DF93282F30E0F90174
:1001D000E255FF4F8491F901E656FF4FD491F901A2
:1001E000EA57FF4FC491CC23A9F0162F81110E942A
:1001F000B900EC2FF0E0EE0FFF1FEE58FF4FA59176
:10020000B4918FB7F894EC91111108C0D095DE230A
:10021000DC938FBFDF91CF911F910895DE2BF8CF34
:10022000CF93DF9390E0FC01E656FF4F24918A576D
:100230009F4FFC0184918823D1F090E0880F991F93
:10024000FC01E859FF4FA591B491FC01EE58FF4F16
:10025000C591D491623071F49FB7F8943C91822F8C
:10026000809583238C93E8812E2B28839FBFDF9179
:10027000CF9108958FB7F894EC912E2B2C938FBFCC
:10028000F6CF3FB7F8948091650190916601A091F7
:100290006701B091680126B5A89B05C02F3F19F0F2
:1002A0000196A11DB11D3FBFBA2FA92F982F8827F6
:1002B000BC01CD01620F711D811D911D42E0660FD1
:1002C000771F881F991F4A95D1F708958F929F92A3
:1002D000AF92BF92CF92DF92EF92FF924B015C01FF
:1002E0000E9441016B017C010E9441016C197D0952
:1002F0008E099F09683E734081059105A8F321E0AE
:10030000821A9108A108B10888EEC80E83E0D81EB1
:10031000E11CF11C81149104A104B10429F7FF90A0
:10032000EF90DF90CF90BF90AF909F908F90089507
:10033000089590E080E00895FC0101900020E9F725
:100340003197AF01481B590BBC0189E691E00C9431
:100350008C00CF93DF93EC0160E08E810E94E2007D
:1003600061E08E810E94E20060E08E810E94E200E6
:100370008BE891E00197F1F7DF91CF910895CF924B
:10038000DF92EF92FF920F931F93CF93DF936C0155
:100390007C0187E0E80EF11CD0E0C0E0062F10E001
:1003A000B8010C2E02C0759567950A94E2F761704A
:1003B000F70181917F010E94E2002196C430D105AE
:1003C00079F7C601DF91CF911F910F91FF90EF90C8
:1003D000DF90CF900C94A901CF92DF92EF92FF9221
:1003E0000F931F93CF93DF93EC01F62E642F8C8134
:1003F0000E94E2008D818F3F19F060E00E94E200D0
:100400000F2D10E08F8584FF25C06E0187E0C80E98
:10041000D11CF12CE12CB8010E2C02C0759567950A
:100420000A94E2F76170F60181916F010E94E20087
:10043000FFEFEF1AFF0A88E0E816F10461F7CE013A
:10044000DF91CF911F910F91FF90EF90DF90CF90B0
:100450000C94A901B80184E0759567958A95E1F738
:10046000CE010E94BF016F2DCE01DF91CF911F9170
:100470000F91FF90EF90DF90CF900C94BF0140E080
:10048000682F89E691E00C94EC0181E00E943F0224
:100490008BE39FE10197F1F70895CF93DF936130EC
:1004A00029F09091780198609093780160937C0195
:1004B00010927D0190E490937E0180937F01805C97
:1004C0008093800161E080916D010E941001809114
:1004D0006E018F3F19F061E00E94100161E0809190
:1004E0006F010E941001C9E6D1E09E0129563140FA
:1004F0008091780184FD0BC084E090E0219628175C
:10050000390744F461E08E810E941001EECF88E04B
:1005100090E0F4CF8BE39DE00197F1F760E08091EC
:100520006D010E94E20060E080916F010E94E20094
:1005300080916E018F3F19F060E00E94E20080918F
:10054000780184FD34C063E089E691E00E94BF0138
:10055000CBE4D6E4CE010197F1F763E089E691E0C0
:100560000E94BF012197F1F763E089E691E00E94C4
:10057000BF0183E592E00197F1F762E089E691E03F
:100580000E94BF018091780180620E943F0284E056
:10059000809379018CE00E943F020E94450282E034
:1005A00080937A0186E0DF91CF910C943F028062C4
:1005B0000E943F028BE496E40197F1F78091780165
:1005C00080620E943F0283E592E00197F1F78091FB
:1005D000780180620E943F02D5CF90917C018917FB
:1005E00010F08FEF890FE82FF0E0E759FE4F848974
:1005F00080680C943F0241E00E94EC0181E090E0B1
:1006000008951F920F920FB60F9211242F933F93CC
:100610008F939F93AF93BF938091610190916201FB
:10062000A0916301B09164013091600123E0230F38
:100630002D3758F50196A11DB11D209360018093BF
:10064000610190936201A0936301B0936401809172
:10065000650190916601A0916701B09168010196D2
:10066000A11DB11D8093650190936601A093670160
:10067000B0936801BF91AF919F918F913F912F915E
:100680000F900FBE0F901F90189526E8230F02962B
:10069000A11DB11DD2CF789484B5826084BD84B58C
:1006A000816084BD85B5826085BD85B5816085BD6D
:1006B00080916E00816080936E0010928100809125
:1006C00081008260809381008091810081608093AD
:1006D0008100809180008160809380008091B100D2
:1006E00084608093B1008091B00081608093B000FD
:1006F00080917A00846080937A0080917A00826091
:1007000080937A0080917A00816080937A00809152
:100710007A00806880937A001092C10062E083E0E2
:100720000E94100161E085E00E94100161E084E018
:100730000E94100164E084E10E944D0280E00E946A
:10074000ED028CE091E00E949C0181E00E94ED02AC
:100750008EE191E00E949C0182E00E94ED0286E21F
:1007600091E00E949C0168EE73E080E090E00E94BE
:100770006601C1EBD0E00DE910E099E8E92E90E0C8
:10078000F92E20E0C22E20E0D22EFE018491F80145
:10079000A490F701B490BB2059F181110E94B900D7
:1007A000EB2DF0E0EE0FFF1FE458FF4FA591B49141
:1007B0008C91A822E9F00E94450283E00E94ED029C
:1007C00089E391E00E949C0161E084E00E94E200E4
:1007D00060E085E00E94E20064E170E080E090E08B
:1007E0000E946601C114D10481F20E940000CDCFA5
:1007F0000E94450283E00E94ED028EE491E00E9497
:100800009C0161E085E00E94E20060E084E0E2CFCC
:10081000E9E6F1E01382128284E091E09183808323
:100820008DE084838FEF85838CE086838BE08783E4
:100830008AE0808789E0818788E082871386148632
:1008400015861686178661E080E10C944D02EE0F46
:0E085000FF1F0590F491E02D0994F894FFCF5E
:10085E0000000000FB028C0099019801535953547B
:10086E00454D2050454E444554454B534900414C4F
:10087E004B4F484F4C0054454C454B4F4D554E49F0
:10088E004B41534920504E4A00414C434F484F4C28
:10089E00204E4F5420444554454354454400414C4A
:1008AE00434F484F4C204445544543544544000063
:00000001FF
